{
  "contractName": "Voting",
  "abi": [
    {
      "inputs": [],
      "stateMutability": "nonpayable",
      "type": "constructor"
    },
    {
      "inputs": [
        {
          "internalType": "uint256",
          "name": "",
          "type": "uint256"
        }
      ],
      "name": "candidates",
      "outputs": [
        {
          "internalType": "uint256",
          "name": "id",
          "type": "uint256"
        },
        {
          "internalType": "string",
          "name": "name",
          "type": "string"
        },
        {
          "internalType": "uint256",
          "name": "voteCount",
          "type": "uint256"
        }
      ],
      "stateMutability": "view",
      "type": "function",
      "constant": true
    },
    {
      "inputs": [],
      "name": "candidatesCount",
      "outputs": [
        {
          "internalType": "uint256",
          "name": "",
          "type": "uint256"
        }
      ],
      "stateMutability": "view",
      "type": "function",
      "constant": true
    },
    {
      "inputs": [
        {
          "internalType": "address",
          "name": "",
          "type": "address"
        }
      ],
      "name": "hasVoted",
      "outputs": [
        {
          "internalType": "bool",
          "name": "",
          "type": "bool"
        }
      ],
      "stateMutability": "view",
      "type": "function",
      "constant": true
    },
    {
      "inputs": [
        {
          "internalType": "uint256",
          "name": "_candidateId",
          "type": "uint256"
        }
      ],
      "name": "vote",
      "outputs": [],
      "stateMutability": "nonpayable",
      "type": "function"
    }
  ],
  "bytecode": "0x608060405234801561001057600080fd5b506100556040518060400160405280600581526020017f416c69636500000000000000000000000000000000000000000000000000000081525061009e60201b60201c565b6100996040518060400160405280600381526020017f426f62000000000000000000000000000000000000000000000000000000000081525061009e60201b60201c565b6102a5565b600260008154809291906100b1906101fe565b9190505550604051806060016040528060025481526020018281526020016000815250600080600254815260200190815260200160002060008201518160000155602082015181600101908051906020019061010e92919061011f565b506040820151816002015590505050565b82805461012b906101cc565b90600052602060002090601f01602090048101928261014d5760008555610194565b82601f1061016657805160ff1916838001178555610194565b82800160010185558215610194579182015b82811115610193578251825591602001919060010190610178565b5b5090506101a191906101a5565b5090565b5b808211156101be5760008160009055506001016101a6565b5090565b6000819050919050565b600060028204905060018216806101e457607f821691505b602082108114156101f8576101f7610276565b5b50919050565b6000610209826101c2565b91507fffffffffffffffffffffffffffffffffffffffffffffffffffffffffffffffff82141561023c5761023b610247565b5b600182019050919050565b7f4e487b7100000000000000000000000000000000000000000000000000000000600052601160045260246000fd5b7f4e487b7100000000000000000000000000000000000000000000000000000000600052602260045260246000fd5b610714806102b46000396000f3fe608060405234801561001057600080fd5b506004361061004c5760003560e01c80630121b93f1461005157806309eef43e1461006d5780632d35a8a21461009d5780633477ee2e146100bb575b600080fd5b61006b6004803603810190610066919061037b565b6100ed565b005b61008760048036038101906100829190610352565b610250565b604051610094919061047b565b60405180910390f35b6100a5610270565b6040516100b291906104d6565b60405180910390f35b6100d560048036038101906100d0919061037b565b610276565b6040516100e4939291906104f1565b60405180910390f35b600160003373ffffffffffffffffffffffffffffffffffffffff1673ffffffffffffffffffffffffffffffffffffffff16815260200190815260200160002060009054906101000a900460ff161561017a576040517f08c379a0000000000000000000000000000000000000000000000000000000008152600401610171906104b6565b60405180910390fd5b60008111801561018c57506002548111155b6101cb576040517f08c379a00000000000000000000000000000000000000000000000000000000081526004016101c290610496565b60405180910390fd5b60008082815260200190815260200160002060020160008154809291906101f1906105f8565b919050555060018060003373ffffffffffffffffffffffffffffffffffffffff1673ffffffffffffffffffffffffffffffffffffffff16815260200190815260200160002060006101000a81548160ff02191690831515021790555050565b60016020528060005260406000206000915054906101000a900460ff1681565b60025481565b600060205280600052604060002060009150905080600001549080600101805461029f906105c6565b80601f01602080910402602001604051908101604052809291908181526020018280546102cb906105c6565b80156103185780601f106102ed57610100808354040283529160200191610318565b820191906000526020600020905b8154815290600101906020018083116102fb57829003601f168201915b5050505050908060020154905083565b600081359050610337816106b0565b92915050565b60008135905061034c816106c7565b92915050565b60006020828403121561036457600080fd5b600061037284828501610328565b91505092915050565b60006020828403121561038d57600080fd5b600061039b8482850161033d565b91505092915050565b6103ad8161055d565b82525050565b60006103be8261052f565b6103c8818561053a565b93506103d8818560208601610593565b6103e18161069f565b840191505092915050565b60006103f960118361053a565b91507f496e76616c69642063616e6469646174650000000000000000000000000000006000830152602082019050919050565b600061043960168361053a565b91507f596f75206861766520616c726561647920766f746564000000000000000000006000830152602082019050919050565b61047581610589565b82525050565b600060208201905061049060008301846103a4565b92915050565b600060208201905081810360008301526104af816103ec565b9050919050565b600060208201905081810360008301526104cf8161042c565b9050919050565b60006020820190506104eb600083018461046c565b92915050565b6000606082019050610506600083018661046c565b818103602083015261051881856103b3565b9050610527604083018461046c565b949350505050565b600081519050919050565b600082825260208201905092915050565b600061055682610569565b9050919050565b60008115159050919050565b600073ffffffffffffffffffffffffffffffffffffffff82169050919050565b6000819050919050565b60005b838110156105b1578082015181840152602081019050610596565b838111156105c0576000848401525b50505050565b600060028204905060018216806105de57607f821691505b602082108114156105f2576105f1610670565b5b50919050565b600061060382610589565b91507fffffffffffffffffffffffffffffffffffffffffffffffffffffffffffffffff82141561063657610635610641565b5b600182019050919050565b7f4e487b7100000000000000000000000000000000000000000000000000000000600052601160045260246000fd5b7f4e487b7100000000000000000000000000000000000000000000000000000000600052602260045260246000fd5b6000601f19601f8301169050919050565b6106b98161054b565b81146106c457600080fd5b50565b6106d081610589565b81146106db57600080fd5b5056fea26469706673582212205ae6dd702a32ec5b649d2db47d1f70e45b9f7f43e58524690fea775f487cada864736f6c63430008000033",
  "immutableReferences": {},
  "source": "pragma solidity ^0.8.0;\r\n\r\ncontract Voting {\r\n    struct Candidate {\r\n        uint id;\r\n        string name;\r\n        uint voteCount;\r\n    }\r\n\r\n    mapping(uint => Candidate) public candidates;\r\n    mapping(address => bool) public hasVoted;\r\n    uint public candidatesCount;\r\n\r\n    constructor() {\r\n        addCandidate(\"Alice\");\r\n        addCandidate(\"Bob\");\r\n    }\r\n\r\n    function addCandidate(string memory _name) private {\r\n        candidatesCount++;\r\n        candidates[candidatesCount] = Candidate(candidatesCount, _name, 0);\r\n    }\r\n\r\n    function vote(uint _candidateId) public {\r\n        require(!hasVoted[msg.sender], \"You have already voted\");\r\n        require(_candidateId > 0 && _candidateId <= candidatesCount, \"Invalid candidate\");\r\n\r\n        candidates[_candidateId].voteCount++;\r\n        hasVoted[msg.sender] = true;\r\n    }\r\n}\r\n",
  "sourcePath": "C:\\Users\\hp\\OneDrive\\Desktop\\Internship\\Blockchain Voting System\\contracts\\Voting.sol",
  "compiler": {
    "name": "solc",
    "version": "0.8.0+commit.c7dfd78e.Emscripten.clang"
  },
  "schemaVersion": "3.4.16",
  "updatedAt": "2025-04-25T18:48:52.176Z",
  "networkType": "ethereum",
  "devdoc": {
    "kind": "dev",
    "methods": {},
    "version": 1
  },
  "userdoc": {
    "kind": "user",
    "methods": {},
    "version": 1
  }
}